{
  "_format": "hh-sol-artifact-1",
  "contractName": "bank",
  "sourceName": "contracts/bank.sol",
  "abi": [
    {
      "inputs": [],
      "stateMutability": "nonpayable",
      "type": "constructor"
    },
    {
      "inputs": [],
      "name": "addBalance",
      "outputs": [
        {
          "internalType": "bool",
          "name": "",
          "type": "bool"
        }
      ],
      "stateMutability": "payable",
      "type": "function"
    },
    {
      "inputs": [],
      "name": "addMoneyToContract",
      "outputs": [],
      "stateMutability": "payable",
      "type": "function"
    },
    {
      "inputs": [
        {
          "internalType": "address",
          "name": "userAddress",
          "type": "address"
        }
      ],
      "name": "getBalance",
      "outputs": [
        {
          "internalType": "uint256",
          "name": "",
          "type": "uint256"
        }
      ],
      "stateMutability": "view",
      "type": "function"
    },
    {
      "inputs": [],
      "name": "getContractBalance",
      "outputs": [
        {
          "internalType": "uint256",
          "name": "",
          "type": "uint256"
        }
      ],
      "stateMutability": "view",
      "type": "function"
    },
    {
      "inputs": [],
      "name": "owner",
      "outputs": [
        {
          "internalType": "address",
          "name": "",
          "type": "address"
        }
      ],
      "stateMutability": "view",
      "type": "function"
    },
    {
      "inputs": [],
      "name": "withdraw",
      "outputs": [
        {
          "internalType": "bool",
          "name": "",
          "type": "bool"
        }
      ],
      "stateMutability": "nonpayable",
      "type": "function"
    },
    {
      "stateMutability": "payable",
      "type": "receive"
    }
  ],
  "bytecode": "0x6080604052600060015534801561001557600080fd5b50336000806101000a81548173ffffffffffffffffffffffffffffffffffffffff021916908373ffffffffffffffffffffffffffffffffffffffff16021790555061091e806100656000396000f3fe6080604052600436106100595760003560e01c80631834ef4e146100655780633ccfd60b1461006f5780636f9fb98a1461009a5780638da5cb5b146100c5578063b163cc38146100f0578063f8b2cb4f1461010e57610060565b3661006057005b600080fd5b61006d61014b565b005b34801561007b57600080fd5b50610084610166565b60405161009191906104e5565b60405180910390f35b3480156100a657600080fd5b506100af6102ca565b6040516100bc9190610519565b60405180910390f35b3480156100d157600080fd5b506100da6102d4565b6040516100e79190610575565b60405180910390f35b6100f86102f8565b60405161010591906104e5565b60405180910390f35b34801561011a57600080fd5b50610135600480360381019061013091906105c1565b6103f6565b6040516101429190610519565b60405180910390f35b346001600082825461015d919061061d565b92505081905550565b600080610172336103f6565b9050600081116101b7576040517f08c379a00000000000000000000000000000000000000000000000000000000081526004016101ae906106ae565b60405180910390fd5b6000600260003373ffffffffffffffffffffffffffffffffffffffff1673ffffffffffffffffffffffffffffffffffffffff16815260200190815260200160002081905550806001600082825461020e91906106ce565b9250508190555060003373ffffffffffffffffffffffffffffffffffffffff168260405161023b90610733565b60006040518083038185875af1925050503d8060008114610278576040519150601f19603f3d011682016040523d82523d6000602084013e61027d565b606091505b50509050806102c1576040517f08c379a00000000000000000000000000000000000000000000000000000000081526004016102b890610794565b60405180910390fd5b60019250505090565b6000600154905090565b60008054906101000a900473ffffffffffffffffffffffffffffffffffffffff1681565b600080341161033c576040517f08c379a000000000000000000000000000000000000000000000000000000000815260040161033390610826565b60405180910390fd5b34600260003373ffffffffffffffffffffffffffffffffffffffff1673ffffffffffffffffffffffffffffffffffffffff168152602001908152602001600020600082825461038b919061061d565b9250508190555034600160008282546103a4919061061d565b9250508190555042600360003373ffffffffffffffffffffffffffffffffffffffff1673ffffffffffffffffffffffffffffffffffffffff168152602001908152602001600020819055506001905090565b600080600260008473ffffffffffffffffffffffffffffffffffffffff1673ffffffffffffffffffffffffffffffffffffffff1681526020019081526020016000205490506000600360008573ffffffffffffffffffffffffffffffffffffffff1673ffffffffffffffffffffffffffffffffffffffff168152602001908152602001600020544261048891906106ce565b90506000620d5de08260078561049e9190610846565b6104a89190610846565b6104b291906108b7565b905080836104c0919061061d565b9350505050919050565b60008115159050919050565b6104df816104ca565b82525050565b60006020820190506104fa60008301846104d6565b92915050565b6000819050919050565b61051381610500565b82525050565b600060208201905061052e600083018461050a565b92915050565b600073ffffffffffffffffffffffffffffffffffffffff82169050919050565b600061055f82610534565b9050919050565b61056f81610554565b82525050565b600060208201905061058a6000830184610566565b92915050565b600080fd5b61059e81610554565b81146105a957600080fd5b50565b6000813590506105bb81610595565b92915050565b6000602082840312156105d7576105d6610590565b5b60006105e5848285016105ac565b91505092915050565b7f4e487b7100000000000000000000000000000000000000000000000000000000600052601160045260246000fd5b600061062882610500565b915061063383610500565b925082820190508082111561064b5761064a6105ee565b5b92915050565b600082825260208201905092915050565b7f496e73756666696369656e742066756e64730000000000000000000000000000600082015250565b6000610698601283610651565b91506106a382610662565b602082019050919050565b600060208201905081810360008301526106c78161068b565b9050919050565b60006106d982610500565b91506106e483610500565b92508282039050818111156106fc576106fb6105ee565b5b92915050565b600081905092915050565b50565b600061071d600083610702565b91506107288261070d565b600082019050919050565b600061073e82610710565b9150819050919050565b7f5472616e73666572206661696c65640000000000000000000000000000000000600082015250565b600061077e600f83610651565b915061078982610748565b602082019050919050565b600060208201905081810360008301526107ad81610771565b9050919050565b7f546865207061796d656e74206d7573742062652067726561746572207468616e60008201527f2030000000000000000000000000000000000000000000000000000000000000602082015250565b6000610810602283610651565b915061081b826107b4565b604082019050919050565b6000602082019050818103600083015261083f81610803565b9050919050565b600061085182610500565b915061085c83610500565b925082820261086a81610500565b91508282048414831517610881576108806105ee565b5b5092915050565b7f4e487b7100000000000000000000000000000000000000000000000000000000600052601260045260246000fd5b60006108c282610500565b91506108cd83610500565b9250826108dd576108dc610888565b5b82820490509291505056fea26469706673582212200460e24aaff4e0ebc870221153bc0cca9474d20a301bda93a02df918460efc7464736f6c63430008140033",
  "linkReferences": {},
  "deployedLinkReferences": {}
}